:100000000C945F000C944B120C94E30E0C944B1266
:100010000C944B120C94CE0C0C94880E0C944B1236
:100020000C94150A0C944B120C944B120C944B121A
:100030000C944B120C944B120C944B120C944B12CC
:100040000C944B120C944B120C944B120C944B12BC
:100050000C944B120C944B120C944B120C944B12AC
:100060000C94BF0A0C944B120C9483050C944E0E06
:100070000C944B120C94600C0C944B120C944B127D
:100080000C944B120C944B120C94770D0C944B1255
:10009000BA05D405EE05080622063C06560670068B
:1000A0006000608380608360870024A46087608B29
:1000B00080608B608F0024A8608F609B800011247B
:1000C0001FBECFEFCDBFDFE7DEBFE0EAF0E040E0EC
:1000D00017C0B591A59135912591059107FD0CC0EB
:1000E00095918591EF01F92FE82F05900D92A217B8
:1000F000B307D9F7FE0104C01D92A217B307E1F7B9
:10010000ED3BF40731F70E94DF0B0C948E11F8944D
:02011000FFCF1F
:10011200CF93DF9300D0CDB7DEB789839A838981ED
:100122009A81FC0180A191A1019709F019C28091E5
:100132008B6090918C60019709F036C480918D603C
:1001420090918E608330910509F45EC084309105F0
:1001520034F48130910579F00297A1F025C48530FD
:10016200910509F470C1853091050CF4F2C006972F
:1001720009F47AC119C482E090E080938D60909373
:100182008E6012C49091986081E089278823D1F013
:1001920085E094E020E2FC01208380E090E00E9470
:1001A200030F82E490E00E94220F80E491E020E4B9
:1001B20031E0F90123812160FC01238381E08093F6
:1001C2009860E7C380919860882309F4E2C380E4D1
:1001D20091E0FC018381882F90E081709927892B1F
:1001E20009F4D7C380E491E020E431E0F9012381EE
:1001F2002160FC0123831092986083E090E0809359
:100202008D6090938E60C5C39091996081E089273B
:100212008823F1F085E094E021E0FC01208380E076
:1002220090E00E94030F80E094E00E94220F80E49D
:1002320091E020E431E0F90123812160FC01238374
:1002420010928F601092906081E080939960A3C3B6
:1002520080919960882309F49EC380E491E0FC01B7
:100262008381882F90E081709927892B09F455C0EA
:1002720080E491E020E431E0F90123812160FC0176
:10028200238380918F60909190608136910584F0F4
:100292001092996089819A8121E030E0FC0125A3C6
:1002A20036A385E090E080938D6090938E6073C357
:1002B20080918F6090919060489784F41092996039
:1002C20089819A8122E030E0FC0125A336A385E0F2
:1002D20090E080938D6090938E605DC380918F607B
:1002E2009091906031E0813691050CF030E0809180
:1002F2008F609091906021E048970CF420E0832F6A
:100302008223882309F447C31092996084E090E025
:1003120080938D6090938E603EC380913760909100
:10032200386020918F6030919060820F931F80938C
:100332008F609093906080918F60909190609923EC
:100342000CF401969595879580938F6090939060B9
:1003520022C390919A6081E089278823A9F080E0E6
:1003620090E00E94030F80E090E50E94220F80E45B
:1003720091E020E431E0F90123812160FC01238333
:1003820081E080939A6009C380919A60882309F47E
:1003920004C380E491E0FC018381882F90E08170A6
:1003A2009927892BA1F180E491E020E431E0F90161
:1003B20023812160FC01238380918F609091906062
:1003C200499784F010929A6089819A8123E030E003
:1003D200FC0125A336A385E090E080938D60909385
:1003E2008E60DBC280918F609091906048970CF094
:1003F200D4C210929A6089819A81FC0115A216A238
:1004020085E090E080938D6090938E60C6C280916B
:1004120037609091386020918F6030919060820FA8
:10042200931F80938F609093906080918F609091E2
:10043200906099230CF401969595879580938F602F
:1004420090939060AAC286E094E021E0FC012083B0
:1004520086E094E020E2FC01208386E090E0809335
:100462008D6090938E60A0C289819A81FC0185A1E2
:1004720096A1892B09F45FC089819A81FC0185A12B
:1004820096A1019791F489819A8121E0FC01208350
:1004920089819A8121E0FC01238389819A8121E06B
:1004A20030E0FC012483358346C089819A81FC01B6
:1004B20085A196A1029791F489819A8121E0FC019C
:1004C200208389819A8121E0FC01238389819A8199
:1004D20022E030E0FC01248335832DC089819A819A
:1004E200FC0185A196A1039791F489819A8121E06B
:1004F200FC01208389819A8121E0FC012383898187
:100502009A8123E030E0FC012483358314C0898181
:100512009A81FC0185A196A1892B69F489819A812E
:10052200FC01108289819A81FC01138289819A815E
:10053200FC011482158289819A8121E0FC01208FBD
:1005420089819A81FC01128A89819A81FC0110A217
:1005520011A281E090E080938D6090938E6024C21E
:1005620089819A81FC0180A191A1029709F01CC2A4
:1005720080918D6090918E60019709F015C28091F3
:100582008B6090918C608330910509F45EC0843059
:10059200910534F48130910579F00297A1F004C2FB
:1005A2008530910509F467C1853091050CF4EEC0E0
:1005B200069709F471C1F8C182E090E080938B60E4
:1005C20090938C60F1C19091986081E08927882393
:1005D200D1F085E094E020E1FC01208380E090E00E
:1005E2000E94030F82E490E00E94220F80E491E0D7
:1005F20020E431E0F90123812160FC01238381E0C1
:1006020080939860CCC180919860882309F4C7C117
:1006120080E491E0FC018381882F90E0817099272A
:10062200892B09F4BCC180E491E020E431E0F901B6
:1006320023812160FC0123831092986083E090E083
:1006420080938B6090938C60AAC19091996081E0B5
:1006520089278823D1F085E094E021E0FC01208302
:1006620080E090E00E94030F80E094E00E94220F5D
:1006720080E491E020E431E0F90123812160FC0172
:10068200238381E0809399608CC180919960882353
:1006920009F487C180E491E0FC018381882F90E016
:1006A20081709927892B09F455C080E491E020E4F8
:1006B20031E0F90123812160FC01238380918F6065
:1006C200909190608136910584F0109299608981B1
:1006D2009A8121E030E0FC0125A336A385E090E079
:1006E20080938B6090938C605CC180918F609091BD
:1006F2009060489784F41092996089819A8122E0EF
:1007020030E0FC0125A336A385E090E080938B6066
:1007120090938C6046C180918F609091906031E09F
:10072200813691050CF030E080918F60909190605D
:1007320021E048970CF420E0832F8223882309F4D8
:1007420030C11092996084E090E080938B60909326
:100752008C6027C1809137609091386020918F60C2
:1007620030919060820F931F80938F60909390607E
:1007720080918F609091906099230CF401969595E9
:10078200879580938F60909390600BC190919A604F
:1007920081E089278823A9F080E090E00E94030F7E
:1007A20080E090E50E94220F80E491E020E431E0B5
:1007B200F90123812160FC01238381E080939A6007
:1007C200F2C080919A60882309F4EDC080E491E040
:1007D200FC018381882F90E081709927892B79F120
:1007E20080E491E020E431E0F90123812160FC0101
:1007F200238380918F6090919060499784F010924A
:100802009A6089819A8123E030E0FC0125A336A316
:1008120085E090E080938B6090938C60C4C080915F
:100822008F609091906048970CF0BDC010929A60D2
:1008320085E090E080938B6090938C60B4C080914F
:1008420037609091386020918F6030919060820F74
:10085200931F80938F609093906080918F609091AE
:10086200906099230CF401969595879580938F60FB
:100872009093906098C086E094E021E0FC01208390
:1008820086E094E020E1FC01208386E090E0809302
:100892008B6090938C6088C089819A81FC0185A1CC
:1008A20096A1892B09F45FC089819A81FC0185A1F7
:1008B20096A1019791F489819A8121E0FC0120831C
:1008C20089819A8121E0FC01238389819A8121E037
:1008D20030E0FC012483358346C089819A81FC0182
:1008E20085A196A1029791F489819A8121E0FC0168
:1008F200208389819A8121E0FC01238389819A8165
:1009020022E030E0FC01248335832DC089819A8165
:10091200FC0185A196A1039791F489819A8121E036
:10092200FC01208389819A8121E0FC012383898152
:100932009A8123E030E0FC012483358314C089814D
:100942009A81FC0185A196A1892B69F489819A81FA
:10095200FC01108289819A81FC01138289819A812A
:10096200FC011482158289819A81FC01108E898191
:100972009A8121E0FC01228B89819A81FC0110A2DB
:1009820011A281E090E080938B6090938C600000D4
:100992000BC0000009C0000007C0000005C0000035
:1009A20003C0000001C0000089819A81FC0180819E
:1009B200882371F089819A81FC01938181E08927E2
:1009C2008823D9F085E094E020E4FC01208315C05F
:1009D20089819A81FC01908181E08927882369F0CD
:1009E20089819A81FC01938181E08927882329F0FA
:1009F20086E094E020E4FC01208389819A81FC0155
:100A0200868189819A81FC018485882371F089819C
:100A12009A81FC01978581E089278823D9F085E4B2
:100A220094E028E0FC01208315C089819A81FC01B1
:100A3200948581E08927882369F089819A81FC0164
:100A4200978581E08927882329F086E494E028E0CD
:100A5200FC01208389819A81FC018289882371F0BB
:100A620089819A81FC01958981E089278823D9F0BF
:100A720085E494E022E0FC01208315C089819A81FB
:100A8200FC01928981E08927882369F089819A8112
:100A9200FC01958981E08927882329F086E494E086
:100AA20022E0FC01208389819A81FC01808D8823C8
:100AB20071F089819A81FC01938D81E089278823D5
:100AC200D9F085E694E028E0FC01208315C08981F5
:100AD2009A81FC01908D81E08927882369F08981C0
:100AE2009A81FC01938D81E08927882329F086E68B
:100AF20094E028E0FC01208300000F900F90DF912A
:040B0200CF910895F2
:100B06001F920F920FB60F9211242F933F934F937C
:100B16005F936F937F938F939F93AF93BF93EF935F
:100B2600FF93CF93DF9300D000D0CDB7DEB788E038
:100B360090E08B839C8387E094E020E8FC0120838F
:100B460080914B6090914C60092E000CAA0BBB0B58
:100B560040E050E027E030E0841B950B281739076A
:100B660008F4D5C0885B9F4FFC010C94411280911C
:100B76004B6090914C6020E036E0F9012089318984
:100B8600329522952F7023273F702327880F991FB0
:100B9600895D9F49FC01208331838CE10E94B30F5C
:100BA600B6C080914B6090914C6020E036E0F90130
:100BB60020893189329522952F7023273F7023276C
:100BC600880F991F895D9F49FC01208331838EE13F
:100BD6000E94B30F9CC080914B6090914C6020E0C6
:100BE60036E0F90120893189329522952F70232725
:100BF6003F702327880F991F895D9F49FC01208339
:100C0600318382E00E94B30F82C080914B60909145
:100C16004C6020E036E0F901208931893295229531
:100C26002F7023273F702327880F991F895D9F49BF
:100C3600FC012083318384E00E94B30F68C0809159
:100C46004B6090914C6020E036E0F90120893189B3
:100C5600329522952F7023273F702327880F991FDF
:100C6600895D9F49FC012083318385E00E94B30F93
:100C76004EC080914B6090914C6020E036E0F901C7
:100C860020893189329522952F7023273F7023279B
:100C9600880F991F895D9F49FC012083318386E077
:100CA6000E94B30F34C080914B6090914C6020E05D
:100CB60036E0F90120893189329522952F70232754
:100CC6003F702327880F991F895D9F49FC01208368
:100CD600318387E00E94B30F1AC080914B609091D8
:100CE6004C6020E036E0F901208931893295229561
:100CF6002F7023273F702327880F991F895D9F49EF
:100D0600FC012083318387E10E947E1100008091DF
:100D16004B6090914C60019680934B6090934C6031
:100D260020914B6030914C608B819C81281739074C
:100D360044F119821A8217C089819A81880F991FF6
:100D4600895D9F49FC012081318189819A81880FC3
:100D5600991F895C9F49FC012083318389819A818F
:100D6600019689839A8329813A818B819C812817F0
:100D7600390714F381E08093916010924B601092D2
:100D86004C6080E096E020E036E0F90125852160A0
:100D9600FC0125878091496090914A60892B31F04A
:100DA6008091496090914A60FC0109950000249663
:100DB600CDBFDEBFDF91CF91FF91EF91BF91AF9194
:100DC6009F918F917F916F915F914F913F912F915D
:0A0DD6000F900FBE0F901F901895AC
:100DE000CF93DF93CDB7DEB780E094E027EFFC012F
:100DF000208380E494E02AE0FC01208380E694E0F4
:100E00002AE0FC01208380EA94E0FC01108280E06B
:100E100094E0FC01148280E494E0FC01148280E6FA
:100E200094E0FC01148280EA94E0FC01148280E0EA
:100E300094E0FC01108A80E094E0FC01118A80E0DB
:100E400094E0FC01128A80E094E0FC01138A80E0C7
:100E500094E0FC01148A80E094E0FC01158A80E0B3
:100E600094E0FC01168A80E094E0FC01178A80E49B
:100E700094E0FC01108A80E494E0FC01118A80E493
:100E800094E0FC01128A80E494E0FC01138A80E47F
:100E900094E0FC01148A80E494E0FC01158A80E46B
:100EA00094E0FC01168A80E494E0FC01178A80E655
:100EB00094E0FC01108A80E694E0FC01118A80E64F
:100EC00094E0FC01128A80E694E0FC01138A80E63B
:100ED00094E0FC01148A80E694E0FC01158A80E627
:100EE00094E0FC01168A80E694E0FC01178A80EA0F
:100EF00094E0FC01108A80EA94E0FC01118A80EA07
:100F000094E0FC01128A80EA94E0FC01138A80EAF2
:100F100094E0FC01148A80EA94E0FC01158A80EADE
:100F200094E0FC01168A80EA94E0FC01178A80EEC6
:100F300095E0FC01118280EE95E021E0FC01208328
:100F400080EE95E0FC01158280EE95E0FC011782B1
:100F500080EE95E0FC01108680EE95E0FC011186A4
:100F600080EE95E0FC01168280EE95E0FC01128295
:100F700089E991E10E94DD0F81EA91E10E94F00F81
:100F800089EA91E10E94031081EB91E10E94161021
:100F900089EB91E10E94291081EC91E10E943C10C3
:100FA00089EC91E10E944F1081ED91E10E94621065
:100FB00089ED91E10E94751081EE91E10E94881007
:100FC00089EE91E10E949B1081EF91E10E94AE10A9
:100FD00089EF91E10E94C11081E092E10E94D4105A
:100FE00089E092E10E94E71081E192E10E94FA100B
:100FF00089E192E10E940D1181E292E10E942011AB
:1010000089E292E10E94331181E392E10E9446114C
:1010100089E392E10E9459110000DF91CF91089578
:10102000CF93DF93CDB7DEB79091926081E08927AF
:10103000882319F110927D6010927E6084E190E027
:10104000FC018281817080939360809193608823FA
:1010500051F488E790E080937F609093806081E016
:10106000809392603FC088E090E080937F6090938F
:10107000806081E08093926035C084E190E0FC0163
:101080008281827080939360809193608823A1F421
:1010900080917F6090918060019780937F609093B2
:1010A000806080917F60909180609923DCF4109241
:1010B0007F601092806016C080917F609091806008
:1010C000019680937F609093806080917F60909183
:1010D00080608138910534F080E890E080937F60F3
:1010E000909380609091946081E089278823F9F043
:1010F00084E190E0FC018281817080939560809111
:101100009560882351F488E790E080938160909304
:10111000826081E0809394603FC088E090E080939B
:1011200081609093826081E08093946035C084E117
:1011300090E0FC018281827080939560809195603F
:101140008823A1F4809181609091826001978093BF
:1011500081609093826080918160909182609923F8
:10116000DCF4109281601092826016C080918160E0
:1011700090918260019680938160909382608091CB
:101180008160909182608138910534F080E890E030
:10119000809381609093826080917F609091806065
:1011A000892B29F410928360109284600DC0809185
:1011B0007F60909180608038910531F481E090E00B
:1011C000809383609093846080918160909182602D
:1011D000892B29F410928560109286600DC0809151
:1011E0008160909182608038910531F481E090E0D7
:1011F00080938560909386608091856090918660F1
:101200009C01220F331F8091836090918460820F34
:10121000931F80937D6090937E6080917D6090911C
:081220007E60DF91CF9108957B
:10122800CF93DF9300D0CDB7DEB789839A839091AF
:10123800966081E08927882371F12091416030917F
:10124800426080913F60909140602817390758F0BC
:1012580081E08093976089819A8122E030E0FC01E7
:1012680020A331A314C02091416030914260809145
:101278003F60909140602817390748F410929760B2
:1012880089819A8121E030E0FC0120A331A381E02B
:1012980080939660C0C080919660882309F4BBC093
:1012A80080919760882309F459C02091416030915A
:1012B800426080913F609091406028173907A8F0FC
:1012C8008091876090918860019780938760909360
:1012D8008860809187609091886099230CF09BC00A
:1012E800109287601092886096C02091416030917A
:1012F800426080913F60909140602817390708F05C
:101308008AC08091876090918860019680938760F9
:1013180090938860809187609091886080319E402A
:101328000CF479C089819A81FC0180A191A1892B53
:1013380071F410928760109288601092976089818A
:101348009A8121E030E0FC0120A331A364C080E150
:101358009EE080938760909388605DC090919760CD
:1013680081E08927882309F456C020914160309193
:10137800426080913F609091406082179307A0F08F
:101388008091896090918A60019780938960909399
:101398008A608091896090918A609923E4F510921F
:1013A800896010928A6037C0209141603091426014
:1013B80080913F60909140608217930760F580911B
:1013C800896090918A6001968093896090938A6081
:1013D8008091896090918A6080319E40E4F0898193
:1013E8009A81FC0180A191A1892B79F410928960DE
:1013F80010928A6081E08093976089819A8122E0C7
:1014080030E0FC0120A331A306C080E19EE0809378
:10141800896090938A6080E00F900F90DF91CF9160
:02142800089525
:10142A001F920F920FB60F9211242F933F934F934F
:10143A005F936F937F938F939F93AF93BF93EF9332
:10144A00FF93CF93DF93CDB7DEB780E090E0FC0146
:10145A008381882F90E088709927892B31F08091B9
:10146A004D6090914E60FC01099580E090E0FC018E
:10147A008381882F90E081709927892B31F08091A0
:10148A00616090916260FC01099580E090E0FC0146
:10149A008381882F90E082709927892B31F080917F
:1014AA00636090916460FC01099580E090E0FC0122
:1014BA008381882F90E084709927892B31F080915D
:1014CA00656090916660FC01099580E090E0FC01FE
:1014DA008381882F90E080719927892B31F0809140
:1014EA00676090916860FC01099580E090E0FC01DA
:1014FA008381882F90E080729927892B31F080911F
:10150A00696090916A60FC01099580E090E0FC01B5
:10151A008381882F90E080749927892B31F08091FC
:10152A006B6090916C60FC01099580E090E0FC0191
:10153A008381882334F480916D6090916E60FC0100
:10154A00099580E090E02FEFFC0123830000DF91F2
:10155A00CF91FF91EF91BF91AF919F918F917F9121
:10156A006F915F914F913F912F910F900FBE0F9006
:04157A001F90189511
:10157E001F920F920FB60F9211242F933F934F93FA
:10158E005F936F937F938F939F93AF93BF93EF93DD
:10159E00FF93CF93DF93CDB7DEB78CE090E0FC01E5
:1015AE008381882F90E084709927892B31F0809168
:1015BE00536090915460FC0109958CE090E0FC0121
:1015CE008381882F90E080719927892B31F080914B
:1015DE00556090915660FC0109958CE090E0FC01FD
:1015EE008381882F90E080729927892B31F080912A
:1015FE00576090915860FC0109958CE090E0FC01D9
:10160E008381882F90E080749927892B31F0809107
:10161E00596090915A60FC0109958CE090E0FC01B4
:10162E008381882334F480915B6090915C60FC012F
:10163E0009958CE090E0FC018381882F90E0827008
:10164E009927892B31F08091736090917460FC0121
:10165E0009958CE090E0FC018381882F90E08870E2
:10166E009927892B31F08091756090917660FC01FD
:10167E0009958CE090E02FEFFC0123830000DF91B1
:10168E00CF91FF91EF91BF91AF919F918F917F91EC
:10169E006F915F914F913F912F910F900FBE0F90D1
:0416AE001F901895DC
:1016B200CF93DF93CDB7DEB780E092E028E0FC0164
:1016C200208B80E092E0FC01118A80E092E0FC0134
:1016D200128A80E092E0FC01138A80E092E0FC0131
:1016E200148A80E092E0FC01158A80E092E021E019
:1016F200FC0120A780E092E0FC0110A280E092E0D1
:10170200FC0111A280E092E0FC0112A280E092E0D2
:10171200FC0113A280E092E0FC0114A280E092E0BE
:10172200FC0115A280E092E0FC0116A280E092E0AA
:10173200FC0117A280E092E0FC0111A680E092E099
:10174200FC0117A680E092E0FC0110AA80E092E082
:10175200FC0111AA80E092E0FC0112AA80E092E072
:10176200FC0113AA80E092E0FC0114AA80E092E05E
:10177200FC0115A680E092E0FC0116A680E092E052
:10178200FC0112A680E092E0FC0113A680E092E048
:10179200FC0114A680E092E0FC0115AA80E092E030
:1017A200FC0116AA80E092E0FC0117AA80E092E018
:0C17B200FC0110AE80E0DF91CF910895A3
:1017BE00CF93DF9300D0CDB7DEB70E94410F86E006
:1017CE0090E089839A8381E080930060109201609B
:1017DE0010920260109203601092046010920560E5
:1017EE0010920660109207601092086010920960C5
:1017FE0010920A6010920B6010920C6010920D60A5
:10180E0010920E6010920F60109210601092116084
:10181E001092126010921360109214601092156064
:10182E001092166010921760109218601092196044
:10183E0010921A6010921B6010921C6010921D6024
:10184E0010921E6010921F60109220601092216004
:10185E0010922260109223601092246010922560E4
:10186E0010922660809191608823F1F00E941008FA
:10187E0089839A8389819A818130910581F08130A3
:10188E00910530F08230910561F0039761F00CC044
:10189E0080E090E60E9414098093916005C00000DC
:1018AE0003C0000001C0000080E090E60E948900A5
:0218BE00D9CF80
:1018C0001F920F920FB60F9211242F933F934F93B5
:1018D0005F936F937F938F939F93AF93BF93EF9398
:1018E000FF93CF93DF93CDB7DEB788E090E0FC01A4
:1018F0008381882F90E081709927892B31F0809126
:101900004F6090915060FC01099588E090E0FC01E7
:101910008381882F90E084709927892B31F0809102
:10192000516090915260FC01099588E090E0FC01C3
:101930008381882F90E082709927892B31F08091E4
:101940006F6090917060FC01099588E090E0FC0167
:101950008381882F90E088709927892B31F08091BE
:10196000716090917260FC01099588E090E02FEF22
:10197000FC0123830000DF91CF91FF91EF91BF9194
:10198000AF919F918F917F916F915F914F913F9117
:0C1990002F910F900FBE0F901F90189524
:10199C001F920F920FB60F9211242F933F934F93D8
:1019AC005F936F937F938F939F93AF93BF93EF93BB
:1019BC00FF93CF93DF93CDB7DEB780E491E0FC01CA
:1019CC008381882F90E081709927892B61F0809119
:1019DC00776090917860892B31F08091776090914D
:1019EC007860FC01099580E491E0FC018381882FEB
:1019FC0090E082709927892B61F0809179609091A9
:101A0C007A60892B31F08091796090917A60FC0139
:101A1C00099580E491E023E0FC0123830000DF9131
:101A2C00CF91FF91EF91BF91AF919F918F917F914A
:101A3C006F915F914F913F912F910F900FBE0F902F
:041A4C001F9018953A
:101A5000CF93DF93CDB7DEB760E080E690E00E94E1
:101A6000710F60E081E690E00E94710F60E085E612
:101A700090E00E94710F60E888E790E00E94710F8B
:101A80006CE088E690E00E94710F60E089E690E0EB
:101A90000E94710F60E080E790E00E94710F60E0AB
:101AA0008CE790E00E94710F60E082E690E00E9477
:101AB000710F60E083E690E00E94710F60E084E6C1
:101AC00090E00E94710F60E080E890E00E94710F4A
:101AD000000080E690E0FC018581882F90E0827014
:0E1AE0009927892BB1F30000DF91CF91089573
:101AEE001F920F920FB60F9211242F933F934F9385
:101AFE005F936F937F938F939F93AF93BF93EF9368
:101B0E00FF93CF93DF93CDB7DEB784E190E0FC0176
:101B1E008381882F90E081709927892B31F08091F5
:101B2E005D6090915E60FC01099584E190E0FC019E
:101B3E008381882F90E082709927892B31F08091D4
:101B4E005F6090916060FC01099584E190E02FEF59
:101B5E00FC0123830000DF91CF91FF91EF91BF91A4
:101B6E00AF919F918F917F916F915F914F913F9127
:0C1B7E002F910F900FBE0F901F90189534
:101B8A00CF93DF93CDB7DEB780E096E024E0FC0187
:101B9A00218380E096E021E0FC01228380E096E048
:101BAA002CEAFC01238380E096E0FC01148280E0A9
:101BBA0096E0FC01168680E096E021E0FC0123878E
:101BCA0080E096E021E0FC01248780E096E027E1AE
:101BDA00FC01208780E096E020E4FC01218780E078
:101BEA0096E020E4FC01258380E096E02FEF3FE0B9
:101BFA00FC01248B358B80E096E0FC01128A138A63
:101C0A0080E096E021E0FC01208380E0DF91CF9123
:021C1A0008952B
:101C1C00CF93DF93CDB7DEB7000080E491E0FC01F9
:101C2C0081818823D1F780E491E02FEF3FE0FC0124
:101C3C002487358780E491E0FC011086118680E4CE
:101C4C0091E02FEF33E0FC012287338780E491E0B1
:101C5C00FC01178280E491E0FC01128280E491E0A7
:101C6C0021E2FC012083000080E491E0FC018189E9
:101C7C008823D1F780E491E021E0FC01228B80E401
:101C8C0091E021E7FC01208B80E0DF91CF9108955A
:101C9C001F920F920FB60F9211242F933F934F93D5
:101CAC005F936F937F938F939F93AF93BF93EF93B8
:101CBC00FF93CF93DF93CDB7DEB780E096E022E0C1
:101CCC00FC0125878091476090914860892B31F009
:101CDC008091476090914860FC0109950000DF916C
:101CEC00CF91FF91EF91BF91AF919F918F917F9188
:101CFC006F915F914F913F912F910F900FBE0F906D
:041D0C001F90189577
:101D10001F920F920FB60F9211242F933F934F9360
:101D20005F936F937F938F939F93AF93BF93EF9343
:101D3000FF93CF93DF93CDB7DEB780917B60909117
:101D40007C60892B31F080917B6090917C60FC01FC
:101D5000099580E491E021E0FC01238B0000DF91F4
:101D6000CF91FF91EF91BF91AF919F918F917F9113
:101D70006F915F914F913F912F910F900FBE0F90F8
:041D80001F90189503
:101D8400CF93DF93CDB7DEB761E080EA90E00E94A5
:101D94005B0F80EA90E0FC01118280EA90E0FC0194
:101DA400118680EA90E0FC01128680EA90E0FC0152
:101DB400138680EA90E0FC01108680E0DF91CF91E9
:021DC400089580
:101DC6001F920F920FB60F9211242F938F939F930A
:101DD600EF93FF93CF93DF93CDB7DEB780EA90E022
:101DE60021E0FC0122870000DF91CF91FF91EF9166
:101DF6009F918F912F910F900FBE0F901F90189566
:101E0600CF93DF9300D0CDB7DEB789839A830000E6
:101E160080E491E0FC018181882F90E0827099270F
:101E2600892BB1F780E491E029813A81FC01208772
:0E1E3600318700000F900F90DF91CF9108953B
:101E4400CF93DF9300D0CDB7DEB789839A830000A8
:101E540080E491E0FC018181882F90E084709927CF
:101E6400892BB1F780E491E029813A81FC01228732
:0E1E7400338700000F900F90DF91CF910895FB
:101E8200CF93DF93CDB7DEB70E94280D0E94F006F4
:101E92000E94C50D0E94C20E0E94590B0E940E0E96
:101EA2000E946C110E94C80F0E949D0F0000DF91DA
:041EB200CF9108952F
:101EB600CF93DF9300D00F92CDB7DEB789839A8395
:101EC6006B8389819A814B8168ED0E9447120000DD
:0C1ED6002396CDBFDEBFDF91CF910895B1
:101EE200CF93DF9300D00F92CDB7DEB789839A8369
:101EF2006B8389819A814B8168ED0E9447120000B1
:0C1F02002396CDBFDEBFDF91CF91089584
:101F0E00CF93DF9300D00F92CDB7DEB789839A833C
:101F1E006B8389819A814B8168ED0E944712000084
:0C1F2E002396CDBFDEBFDF91CF91089558
:101F3A00CF93DF93CDB7DEB760E080E191E00E94F6
:101F4A00870F80E191E0FC01128280E191E0FC01BF
:0C1F5A001382789480E0DF91CF9108950D
:101F6600CF93DF930F92CDB7DEB7898380E096E0FB
:101F76002981FC01208780E096E021E0FC01228790
:0A1F860000000F90DF91CF91089545
:101F9000CF93DF93CDB7DEB780EB90E0FC011482E6
:101FA00080EB90E025E8FC01208380EB90E0FC01D1
:0A1FB000128280E0DF91CF910895C6
:101FBA00CF93DF9300D0CDB7DEB789839A83898127
:101FCA009A8180934D6090934E6000000F900F901D
:061FDA00DF91CF91089594
:101FE000CF93DF9300D0CDB7DEB789839A83898101
:101FF0009A8180934F609093506000000F900F90F3
:06200000DF91CF9108956D
:10200600CF93DF9300D0CDB7DEB789839A838981DA
:102016009A81809351609093526000000F900F90C8
:06202600DF91CF91089547
:10202C00CF93DF9300D0CDB7DEB789839A838981B4
:10203C009A81809353609093546000000F900F909E
:06204C00DF91CF91089521
:10205200CF93DF9300D0CDB7DEB789839A8389818E
:102062009A81809355609093566000000F900F9074
:06207200DF91CF910895FB
:10207800CF93DF9300D0CDB7DEB789839A83898168
:102088009A81809357609093586000000F900F904A
:06209800DF91CF910895D5
:10209E00CF93DF9300D0CDB7DEB789839A83898142
:1020AE009A818093596090935A6000000F900F9020
:0620BE00DF91CF910895AF
:1020C400CF93DF9300D0CDB7DEB789839A8389811C
:1020D4009A8180935B6090935C6000000F900F90F6
:0620E400DF91CF91089589
:1020EA00CF93DF9300D0CDB7DEB789839A838981F6
:1020FA009A8180935D6090935E6000000F900F90CC
:06210A00DF91CF91089562
:10211000CF93DF9300D0CDB7DEB789839A838981CF
:102120009A8180935F609093606000000F900F90A1
:06213000DF91CF9108953C
:10213600CF93DF9300D0CDB7DEB789839A838981A9
:102146009A81809361609093626000000F900F9077
:06215600DF91CF91089516
:10215C00CF93DF9300D0CDB7DEB789839A83898183
:10216C009A81809363609093646000000F900F904D
:06217C00DF91CF910895F0
:10218200CF93DF9300D0CDB7DEB789839A8389815D
:102192009A81809365609093666000000F900F9023
:0621A200DF91CF910895CA
:1021A800CF93DF9300D0CDB7DEB789839A83898137
:1021B8009A81809367609093686000000F900F90F9
:0621C800DF91CF910895A4
:1021CE00CF93DF9300D0CDB7DEB789839A83898111
:1021DE009A818093696090936A6000000F900F90CF
:0621EE00DF91CF9108957E
:1021F400CF93DF9300D0CDB7DEB789839A838981EB
:102204009A8180936B6090936C6000000F900F90A4
:06221400DF91CF91089557
:10221A00CF93DF9300D0CDB7DEB789839A838981C4
:10222A009A8180936D6090936E6000000F900F907A
:06223A00DF91CF91089531
:10224000CF93DF9300D0CDB7DEB789839A8389819E
:102250009A8180936F609093706000000F900F9050
:06226000DF91CF9108950B
:10226600CF93DF9300D0CDB7DEB789839A83898178
:102276009A81809371609093726000000F900F9026
:06228600DF91CF910895E5
:10228C00CF93DF9300D0CDB7DEB789839A83898152
:10229C009A81809373609093746000000F900F90FC
:0622AC00DF91CF910895BF
:1022B200CF93DF9300D0CDB7DEB789839A8389812C
:1022C2009A81809375609093766000000F900F90D2
:0622D200DF91CF91089599
:1022D800CF93DF93CDB7DEB760E080E590E00E9452
:1022E8005B0F60E081E590E00E945B0F80E0DF918A
:0422F800CF910895E5
:1022FC00CF93DF930F92CDB7DEB7898380E096E062
:10230C002981FC01208700000F90DF91CF91089567
:10231C00EC010E9450120E944F12CE010E945112E9
:06232C00CE010E944D12DB
:10233200CF93DF93CDB7DEB70000DF91CF91089541
:10234200CF93DF93CDB7DEB70000DF91CF91089531
:10235200CF93DF93CDB7DEB70000DF91CF91089521
:10236200CF93DF93CDB7DEB70000DF91CF91089511
:10237200CF93DF93CDB7DEB70000DF91CF91089501
:10238200CF93DF93CDB7DEB70000DF91CF910895F1
:10239200CF93DF93CDB7DEB70000DF91CF910895E1
:1023A200CF93DF93CDB7DEB70000DF91CF910895D1
:1023B200CF93DF93CDB7DEB70000DF91CF910895C1
:1023C200CF93DF93CDB7DEB70000DF91CF910895B1
:1023D200CF93DF93CDB7DEB70000DF91CF910895A1
:1023E200CF93DF93CDB7DEB70000DF91CF91089591
:1023F200CF93DF93CDB7DEB70000DF91CF91089581
:10240200CF93DF93CDB7DEB70000DF91CF91089570
:10241200CF93DF93CDB7DEB70000DF91CF91089560
:10242200CF93DF93CDB7DEB70000DF91CF91089550
:10243200CF93DF93CDB7DEB70000DF91CF91089540
:10244200CF93DF93CDB7DEB70000DF91CF91089530
:10245200CF93DF93CDB7DEB70000DF91CF91089520
:10246200CF93DF93CDB7DEB70000DF91CF91089510
:10247200CF93DF93CDB7DEB70000DF91CF91089500
:0C248200EE0FFF1F0590F491E02D09946F
:08248E00FC0164BF40830895C6
:042496000C940000A2
:04249A000E94870015
:02249E0008959F
:0224A00008959D
:0224A20008959B
:0224A400020034
:0224A600020032
:0224A800010031
:0224AA0001002F
:02000004008278
:090000000000000000D808000017
:00000001FF
